{
  'hex': '01000000010000000000000000000000000000000000000000000000000000000000000000ffffffff640391320637e4b883e5bda9e7a59ee4bb99e9b1bca23d5b8580ef572f5a3e533ef9113799cdc7b44ee3378c14c620efec8da4ab2502000000f09f909f114d696e6564206279206361697a79383838000000000000000000000000000000000000000000002521000001a20c5795000000001976a914c825a1ecf2a6830c4401620c3a16f1995057c2ab88acfa010631',
  'txid': 'c57dfb6220fa4e40b4a1175a8fd4d06b2f591d3eb068f6cf4701058298849873',
  'version': 1,
  'locktime': 822477306,
  'vin': [
    {
      'coinbase': '0391320637e4b883e5bda9e7a59ee4bb99e9b1bca23d5b8580ef572f5a3e533ef9113799cdc7b44ee3378c14c620efec8da4ab2502000000f09f909f114d696e6564206279206361697a7938383800000000000000000000000000000000000000000000',
      'sequence': 8485
    }
  ],
  'vout': [
    {
      'value': 25.0551005,
      'n': 0,
      'scriptPubKey': {
        'asm': 'OP_DUP OP_HASH160 c825a1ecf2a6830c4401620c3a16f1995057c2ab OP_EQUALVERIFY OP_CHECKSIG',
        'hex': '76a914c825a1ecf2a6830c4401620c3a16f1995057c2ab88ac',
        'reqSigs': 1,
        'type': 'pubkeyhash',
        'addresses': [
          '1KFHE7w8BhaENAswwryaoccDb6qcT6DbYY'
        ]
      }
    }
  ],
  'blockhash': '000000000000000004a80d2dac99b67657673587c3b05bbcf97a69d5e4c1235a',
  'confirmations': 5,
  'time': 1460035228,
  'blocktime': 1460035228
}