{
  'hex': '0100000003682e9f3ef6233eb17fa9175c10218bba15e45de7aceaed0c7820714d281d46c5000000006b4830450221009d5c6c1dd01b6b178775fb3da68ac97c55b8f06b5564e7251cadc85de2abb8d402205a18ce5411eaa4526ac3b1003b893622fb2961ab7648e3fff19b571328ed909e012102e0cfa2df72298534bb12a3dd75b496d5960a31b9e54be0414bcc4fa37eaf132ffeffffffb0f98fe60c5c1c8640c53842a12b48eceb664a4fd5c86d20a461a6516f378f1f010000006a473044022057d27b6e3d03e36d66d0427939dfb71009d23f5269faa3ecfa212746bf695d9f02204e38617755efc011c2b918089020456734adb1ba8b3abc210eda32acdc7a483401210277c5b0cea0d7206010014fcce2654b0a5a5d54d02084f727ce0758d736a7ad98feffffff95aa50c28cc069580e690e7e9b45177cb748b6ee02c9663f6fb6ab30a6eefba4040000006a4730440220702de8097a7f41a81b96a7503983afc95ca8188406581a0f0ce79e1d4b90253f02201e1ec76f1e21ba6f4b715d792637c6b79cc0e6925c16dfd61db33475f846115b01210254f4444026aa257751a0f83b6a4eaca6183b619c225e4a493cf958b58b9a7653feffffff02ea5f0f00000000001976a914ec4cca42352bc39020ba2da4b49bff6a72b6a07988ac30251e00000000001976a914c0b919cc374a6fe3bff7fe36c8fcf90c745a923788aced310600',
  'txid': '9508ffe866527397192f3d611ed270539fa0177fadf23c30e26b5312db74e9b9',
  'version': 1,
  'locktime': 405997,
  'vin': [
    {
      'txid': 'c5461d284d7120780cedeaace75de415ba8b21105c17a97fb13e23f63e9f2e68',
      'vout': 0,
      'scriptSig': {
        'asm': '30450221009d5c6c1dd01b6b178775fb3da68ac97c55b8f06b5564e7251cadc85de2abb8d402205a18ce5411eaa4526ac3b1003b893622fb2961ab7648e3fff19b571328ed909e01 02e0cfa2df72298534bb12a3dd75b496d5960a31b9e54be0414bcc4fa37eaf132f',
        'hex': '4830450221009d5c6c1dd01b6b178775fb3da68ac97c55b8f06b5564e7251cadc85de2abb8d402205a18ce5411eaa4526ac3b1003b893622fb2961ab7648e3fff19b571328ed909e012102e0cfa2df72298534bb12a3dd75b496d5960a31b9e54be0414bcc4fa37eaf132f'
      },
      'sequence': 4294967294
    },
    {
      'txid': '1f8f376f51a661a4206dc8d54f4a66ebec482ba14238c540861c5c0ce68ff9b0',
      'vout': 1,
      'scriptSig': {
        'asm': '3044022057d27b6e3d03e36d66d0427939dfb71009d23f5269faa3ecfa212746bf695d9f02204e38617755efc011c2b918089020456734adb1ba8b3abc210eda32acdc7a483401 0277c5b0cea0d7206010014fcce2654b0a5a5d54d02084f727ce0758d736a7ad98',
        'hex': '473044022057d27b6e3d03e36d66d0427939dfb71009d23f5269faa3ecfa212746bf695d9f02204e38617755efc011c2b918089020456734adb1ba8b3abc210eda32acdc7a483401210277c5b0cea0d7206010014fcce2654b0a5a5d54d02084f727ce0758d736a7ad98'
      },
      'sequence': 4294967294
    },
    {
      'txid': 'a4fbeea630abb66f3f66c902eeb648b77c17459b7e0e690e5869c08cc250aa95',
      'vout': 4,
      'scriptSig': {
        'asm': '30440220702de8097a7f41a81b96a7503983afc95ca8188406581a0f0ce79e1d4b90253f02201e1ec76f1e21ba6f4b715d792637c6b79cc0e6925c16dfd61db33475f846115b01 0254f4444026aa257751a0f83b6a4eaca6183b619c225e4a493cf958b58b9a7653',
        'hex': '4730440220702de8097a7f41a81b96a7503983afc95ca8188406581a0f0ce79e1d4b90253f02201e1ec76f1e21ba6f4b715d792637c6b79cc0e6925c16dfd61db33475f846115b01210254f4444026aa257751a0f83b6a4eaca6183b619c225e4a493cf958b58b9a7653'
      },
      'sequence': 4294967294
    }
  ],
  'vout': [
    {
      'value': 0.01007594,
      'n': 0,
      'scriptPubKey': {
        'asm': 'OP_DUP OP_HASH160 ec4cca42352bc39020ba2da4b49bff6a72b6a079 OP_EQUALVERIFY OP_CHECKSIG',
        'hex': '76a914ec4cca42352bc39020ba2da4b49bff6a72b6a07988ac',
        'reqSigs': 1,
        'type': 'pubkeyhash',
        'addresses': [
          '1NYSTjub949EBYTc6oDgzTorkDp4ZMbyB7'
        ]
      }
    },
    {
      'value': 0.019756,
      'n': 1,
      'scriptPubKey': {
        'asm': 'OP_DUP OP_HASH160 c0b919cc374a6fe3bff7fe36c8fcf90c745a9237 OP_EQUALVERIFY OP_CHECKSIG',
        'hex': '76a914c0b919cc374a6fe3bff7fe36c8fcf90c745a923788ac',
        'reqSigs': 1,
        'type': 'pubkeyhash',
        'addresses': [
          '1Ja2UroEd8B2X2R7gfWp7im9JkXJde2HwH'
        ]
      }
    }
  ],
  'blockhash': '00000000000000000163d5b56c657753ac4a4beaf1d31c93baa685eb20f90fcd',
  'confirmations': 8,
  'time': 1459942040,
  'blocktime': 1459942040
}